Processing test - log3_MaxTopic_d0g0v0_Homestead
LblinitGeneratedTopCell{}(\left-assoc{}(Lbl'Unds'Map'Unds'{}(Lbl'UndsPipe'-'-GT-Unds'{}(inj{SortKConfigVar{}, SortKItem{}}(\dv{SortKConfigVar{}}("$PGM")), inj{SortJSON{}, SortKItem{}}(LblJSONObject{}(\right-assoc{}(LblJSONs{}(LblJSONEntry{}(inj{SortString{}, SortJSONKey{}}(\dv{SortString{}}("log3_MaxTopic_d0g0v0_Homestead")), LblJSONObject{}(\right-assoc{}(LblJSONs{}(LblJSONEntry{}(inj{SortString{}, SortJSONKey{}}(\dv{SortString{}}("blocks")), LblJSONList{}(\right-assoc{}(LblJSONs{}(LblJSONObject{}(\right-assoc{}(LblJSONs{}(LblJSONEntry{}(inj{SortString{}, SortJSONKey{}}(\dv{SortString{}}("blockHeader")), LblJSONObject{}(\right-assoc{}(LblJSONs{}(LblJSONEntry{}(inj{SortString{}, SortJSONKey{}}(\dv{SortString{}}("bloom")), inj{SortString{}, SortJSON{}}(\dv{SortString{}}("0x00000000000000000000000000000000000000000000000000000000000000000000000000000000000000000000000000000000000000000000000000000000000000000000000000000000000000000000000000000000000008800000000000000000000000000000000000000000000000000000000000000000000000200000000000000000000000000000000000000000000000000000000000000000000000000000000000000000000000000000000000000000000000000000000000000000000000200000800000000000000000000000000000000000000000000000000000000000000000000000000000000010000000000000000000000000"))), LblJSONEntry{}(inj{SortString{}, SortJSONKey{}}(\dv{SortString{}}("coinbase")), inj{SortString{}, SortJSON{}}(\dv{SortString{}}("0x2adc25665018aa1fe0e6bc666dac8fc2697ff9ba"))), LblJSONEntry{}(inj{SortString{}, SortJSONKey{}}(\dv{SortString{}}("difficulty")), inj{SortString{}, SortJSON{}}(\dv{SortString{}}("0x020000"))), LblJSONEntry{}(inj{SortString{}, SortJSONKey{}}(\dv{SortString{}}("extraData")), inj{SortString{}, SortJSON{}}(\dv{SortString{}}(""))), LblJSONEntry{}(inj{SortString{}, SortJSONKey{}}(\dv{SortString{}}("gasLimit")), inj{SortString{}, SortJSON{}}(\dv{SortString{}}("0x0f4240"))), LblJSONEntry{}(inj{SortString{}, SortJSONKey{}}(\dv{SortString{}}("gasUsed")), inj{SortString{}, SortJSON{}}(\dv{SortString{}}("0xc18b"))), LblJSONEntry{}(inj{SortString{}, SortJSONKey{}}(\dv{SortString{}}("hash")), inj{SortString{}, SortJSON{}}(\dv{SortString{}}("0x1fc7dbcd9a46eae708c088001b2ad19930a8179e533107c5ee4345b721613748"))), LblJSONEntry{}(inj{SortString{}, SortJSONKey{}}(\dv{SortString{}}("mixHash")), inj{SortString{}, SortJSON{}}(\dv{SortString{}}("0x4111fd7141bb87fa29bd567970a71b07b20f2440beb06f6e75a19f7b7ed3b250"))), LblJSONEntry{}(inj{SortString{}, SortJSONKey{}}(\dv{SortString{}}("nonce")), inj{SortString{}, SortJSON{}}(\dv{SortString{}}("0xad9198e459b86782"))), LblJSONEntry{}(inj{SortString{}, SortJSONKey{}}(\dv{SortString{}}("number")), inj{SortString{}, SortJSON{}}(\dv{SortString{}}("0x01"))), LblJSONEntry{}(inj{SortString{}, SortJSONKey{}}(\dv{SortString{}}("parentHash")), inj{SortString{}, SortJSON{}}(\dv{SortString{}}("0x739bdad18fdb2c6ce2ccb72b2e82b72fb426bf5e5336530b56010081594bc403"))), LblJSONEntry{}(inj{SortString{}, SortJSONKey{}}(\dv{SortString{}}("receiptTrie")), inj{SortString{}, SortJSON{}}(\dv{SortString{}}("0x844cc41b7d07def0bd20dd301798754b4e469f8f232f1f5092b96f7063a02a30"))), LblJSONEntry{}(inj{SortString{}, SortJSONKey{}}(\dv{SortString{}}("stateRoot")), inj{SortString{}, SortJSON{}}(\dv{SortString{}}("0xe0cae5148af74d0eb6a944b13ce34f96b6a60be802c1d722924548f91843b683"))), LblJSONEntry{}(inj{SortString{}, SortJSONKey{}}(\dv{SortString{}}("timestamp")), inj{SortString{}, SortJSON{}}(\dv{SortString{}}("0x03e8"))), LblJSONEntry{}(inj{SortString{}, SortJSONKey{}}(\dv{SortString{}}("transactionsTrie")), inj{SortString{}, SortJSON{}}(\dv{SortString{}}("0x466f1520dd2fb37a6abe5419439e4bc5fd5146708535d1984cde813519a28e61"))), LblJSONEntry{}(inj{SortString{}, SortJSONKey{}}(\dv{SortString{}}("uncleHash")), inj{SortString{}, SortJSON{}}(\dv{SortString{}}("0x1dcc4de8dec75d7aab85b567b6ccd41ad312451b948a7413f0a142fd40d49347"))), Lbl'Stop'List'LBraQuot'JSONs'QuotRBra'{}())))), LblJSONEntry{}(inj{SortString{}, SortJSONKey{}}(\dv{SortString{}}("rlp")), inj{SortString{}, SortJSON{}}(\dv{SortString{}}("0xf90262f901f7a0739bdad18fdb2c6ce2ccb72b2e82b72fb426bf5e5336530b56010081594bc403a01dcc4de8dec75d7aab85b567b6ccd41ad312451b948a7413f0a142fd40d49347942adc25665018aa1fe0e6bc666dac8fc2697ff9baa0e0cae5148af74d0eb6a944b13ce34f96b6a60be802c1d722924548f91843b683a0466f1520dd2fb37a6abe5419439e4bc5fd5146708535d1984cde813519a28e61a0844cc41b7d07def0bd20dd301798754b4e469f8f232f1f5092b96f7063a02a30b90100000000000000000000000000000000000000000000000000000000000000000000000000000000000000000000000000000000000000000000000000000000000000000000000000000000000000000000000000000000000000088000000000000000000000000000000000000000000000000000000000000000000000002000000000000000000000000000000000000000000000000000000000000000000000000000000000000000000000000000000000000000000000000000000000000000000000002000008000000000000000000000000000000000000000000000000000000000000000000000000000000000100000000000000000000000008302000001830f424082c18b8203e880a04111fd7141bb87fa29bd567970a71b07b20f2440beb06f6e75a19f7b7ed3b25088ad9198e459b86782f865f86380018303345094095e7baea6a6c7c4c2dfeb977efac326af552d87830186a0801ba09bae3efe7d9d16200582021c8f7c93c143c3fb1dd6be8a83213f3a5f1ad03926a0177d82a90f883a19de8c6d62ce79c753ae4ea076de047ca19a017879a1ce8bc1c0"))), LblJSONEntry{}(inj{SortString{}, SortJSONKey{}}(\dv{SortString{}}("transactions")), LblJSONList{}(\right-assoc{}(LblJSONs{}(LblJSONObject{}(\right-assoc{}(LblJSONs{}(LblJSONEntry{}(inj{SortString{}, SortJSONKey{}}(\dv{SortString{}}("data")), inj{SortString{}, SortJSON{}}(\dv{SortString{}}(""))), LblJSONEntry{}(inj{SortString{}, SortJSONKey{}}(\dv{SortString{}}("gasLimit")), inj{SortString{}, SortJSON{}}(\dv{SortString{}}("0x033450"))), LblJSONEntry{}(inj{SortString{}, SortJSONKey{}}(\dv{SortString{}}("gasPrice")), inj{SortString{}, SortJSON{}}(\dv{SortString{}}("0x01"))), LblJSONEntry{}(inj{SortString{}, SortJSONKey{}}(\dv{SortString{}}("nonce")), inj{SortString{}, SortJSON{}}(\dv{SortString{}}("0x00"))), LblJSONEntry{}(inj{SortString{}, SortJSONKey{}}(\dv{SortString{}}("r")), inj{SortString{}, SortJSON{}}(\dv{SortString{}}("0x9bae3efe7d9d16200582021c8f7c93c143c3fb1dd6be8a83213f3a5f1ad03926"))), LblJSONEntry{}(inj{SortString{}, SortJSONKey{}}(\dv{SortString{}}("s")), inj{SortString{}, SortJSON{}}(\dv{SortString{}}("0x177d82a90f883a19de8c6d62ce79c753ae4ea076de047ca19a017879a1ce8bc1"))), LblJSONEntry{}(inj{SortString{}, SortJSONKey{}}(\dv{SortString{}}("to")), inj{SortString{}, SortJSON{}}(\dv{SortString{}}("0x095e7baea6a6c7c4c2dfeb977efac326af552d87"))), LblJSONEntry{}(inj{SortString{}, SortJSONKey{}}(\dv{SortString{}}("v")), inj{SortString{}, SortJSON{}}(\dv{SortString{}}("0x1b"))), LblJSONEntry{}(inj{SortString{}, SortJSONKey{}}(\dv{SortString{}}("value")), inj{SortString{}, SortJSON{}}(\dv{SortString{}}("0x0186a0"))), Lbl'Stop'List'LBraQuot'JSONs'QuotRBra'{}()))), Lbl'Stop'List'LBraQuot'JSONs'QuotRBra'{}())))), LblJSONEntry{}(inj{SortString{}, SortJSONKey{}}(\dv{SortString{}}("uncleHeaders")), LblJSONList{}(\right-assoc{}(LblJSONs{}(Lbl'Stop'List'LBraQuot'JSONs'QuotRBra'{}())))), Lbl'Stop'List'LBraQuot'JSONs'QuotRBra'{}()))), Lbl'Stop'List'LBraQuot'JSONs'QuotRBra'{}())))), LblJSONEntry{}(inj{SortString{}, SortJSONKey{}}(\dv{SortString{}}("genesisBlockHeader")), LblJSONObject{}(\right-assoc{}(LblJSONs{}(LblJSONEntry{}(inj{SortString{}, SortJSONKey{}}(\dv{SortString{}}("bloom")), inj{SortString{}, SortJSON{}}(\dv{SortString{}}("0x00000000000000000000000000000000000000000000000000000000000000000000000000000000000000000000000000000000000000000000000000000000000000000000000000000000000000000000000000000000000000000000000000000000000000000000000000000000000000000000000000000000000000000000000000000000000000000000000000000000000000000000000000000000000000000000000000000000000000000000000000000000000000000000000000000000000000000000000000000000000000000000000000000000000000000000000000000000000000000000000000000000000000000000000000000000"))), LblJSONEntry{}(inj{SortString{}, SortJSONKey{}}(\dv{SortString{}}("coinbase")), inj{SortString{}, SortJSON{}}(\dv{SortString{}}("0x2adc25665018aa1fe0e6bc666dac8fc2697ff9ba"))), LblJSONEntry{}(inj{SortString{}, SortJSONKey{}}(\dv{SortString{}}("difficulty")), inj{SortString{}, SortJSON{}}(\dv{SortString{}}("0x020000"))), LblJSONEntry{}(inj{SortString{}, SortJSONKey{}}(\dv{SortString{}}("extraData")), inj{SortString{}, SortJSON{}}(\dv{SortString{}}("0x42"))), LblJSONEntry{}(inj{SortString{}, SortJSONKey{}}(\dv{SortString{}}("gasLimit")), inj{SortString{}, SortJSON{}}(\dv{SortString{}}("0x0f4240"))), LblJSONEntry{}(inj{SortString{}, SortJSONKey{}}(\dv{SortString{}}("gasUsed")), inj{SortString{}, SortJSON{}}(\dv{SortString{}}("0x00"))), LblJSONEntry{}(inj{SortString{}, SortJSONKey{}}(\dv{SortString{}}("hash")), inj{SortString{}, SortJSON{}}(\dv{SortString{}}("0x739bdad18fdb2c6ce2ccb72b2e82b72fb426bf5e5336530b56010081594bc403"))), LblJSONEntry{}(inj{SortString{}, SortJSONKey{}}(\dv{SortString{}}("mixHash")), inj{SortString{}, SortJSON{}}(\dv{SortString{}}("0x56e81f171bcc55a6ff8345e692c0f86e5b48e01b996cadc001622fb5e363b421"))), LblJSONEntry{}(inj{SortString{}, SortJSONKey{}}(\dv{SortString{}}("nonce")), inj{SortString{}, SortJSON{}}(\dv{SortString{}}("0x0102030405060708"))), LblJSONEntry{}(inj{SortString{}, SortJSONKey{}}(\dv{SortString{}}("number")), inj{SortString{}, SortJSON{}}(\dv{SortString{}}("0x00"))), LblJSONEntry{}(inj{SortString{}, SortJSONKey{}}(\dv{SortString{}}("parentHash")), inj{SortString{}, SortJSON{}}(\dv{SortString{}}("0x0000000000000000000000000000000000000000000000000000000000000000"))), LblJSONEntry{}(inj{SortString{}, SortJSONKey{}}(\dv{SortString{}}("receiptTrie")), inj{SortString{}, SortJSON{}}(\dv{SortString{}}("0x56e81f171bcc55a6ff8345e692c0f86e5b48e01b996cadc001622fb5e363b421"))), LblJSONEntry{}(inj{SortString{}, SortJSONKey{}}(\dv{SortString{}}("stateRoot")), inj{SortString{}, SortJSON{}}(\dv{SortString{}}("0xc2441751ffff1a2a518d82f53bb71288841beb89898fbe9ab74b5f12a5810b60"))), LblJSONEntry{}(inj{SortString{}, SortJSONKey{}}(\dv{SortString{}}("timestamp")), inj{SortString{}, SortJSON{}}(\dv{SortString{}}("0x03b6"))), LblJSONEntry{}(inj{SortString{}, SortJSONKey{}}(\dv{SortString{}}("transactionsTrie")), inj{SortString{}, SortJSON{}}(\dv{SortString{}}("0x56e81f171bcc55a6ff8345e692c0f86e5b48e01b996cadc001622fb5e363b421"))), LblJSONEntry{}(inj{SortString{}, SortJSONKey{}}(\dv{SortString{}}("uncleHash")), inj{SortString{}, SortJSON{}}(\dv{SortString{}}("0x1dcc4de8dec75d7aab85b567b6ccd41ad312451b948a7413f0a142fd40d49347"))), Lbl'Stop'List'LBraQuot'JSONs'QuotRBra'{}())))), LblJSONEntry{}(inj{SortString{}, SortJSONKey{}}(\dv{SortString{}}("genesisRLP")), inj{SortString{}, SortJSON{}}(\dv{SortString{}}("0xf901faf901f5a00000000000000000000000000000000000000000000000000000000000000000a01dcc4de8dec75d7aab85b567b6ccd41ad312451b948a7413f0a142fd40d49347942adc25665018aa1fe0e6bc666dac8fc2697ff9baa0c2441751ffff1a2a518d82f53bb71288841beb89898fbe9ab74b5f12a5810b60a056e81f171bcc55a6ff8345e692c0f86e5b48e01b996cadc001622fb5e363b421a056e81f171bcc55a6ff8345e692c0f86e5b48e01b996cadc001622fb5e363b421b90100000000000000000000000000000000000000000000000000000000000000000000000000000000000000000000000000000000000000000000000000000000000000000000000000000000000000000000000000000000000000000000000000000000000000000000000000000000000000000000000000000000000000000000000000000000000000000000000000000000000000000000000000000000000000000000000000000000000000000000000000000000000000000000000000000000000000000000000000000000000000000000000000000000000000000000000000000000000000000000000000000000000000000000000000000000008302000080830f4240808203b642a056e81f171bcc55a6ff8345e692c0f86e5b48e01b996cadc001622fb5e363b421880102030405060708c0c0"))), LblJSONEntry{}(inj{SortString{}, SortJSONKey{}}(\dv{SortString{}}("network")), inj{SortString{}, SortJSON{}}(\dv{SortString{}}("Homestead"))), LblJSONEntry{}(inj{SortString{}, SortJSONKey{}}(\dv{SortString{}}("postState")), LblJSONObject{}(\right-assoc{}(LblJSONs{}(LblJSONEntry{}(inj{SortString{}, SortJSONKey{}}(\dv{SortString{}}("0x095e7baea6a6c7c4c2dfeb977efac326af552d87")), LblJSONObject{}(\right-assoc{}(LblJSONs{}(LblJSONEntry{}(inj{SortString{}, SortJSONKey{}}(\dv{SortString{}}("balance")), inj{SortString{}, SortJSON{}}(\dv{SortString{}}("0x0de0b6b3a7658689"))), LblJSONEntry{}(inj{SortString{}, SortJSONKey{}}(\dv{SortString{}}("code")), inj{SortString{}, SortJSON{}}(\dv{SortString{}}("0x60006000600060006017730f572e5295c57f15886f9b263e2f6d2d6c7b5ec66103e8f1600055"))), LblJSONEntry{}(inj{SortString{}, SortJSONKey{}}(\dv{SortString{}}("nonce")), inj{SortString{}, SortJSON{}}(\dv{SortString{}}("0x00"))), LblJSONEntry{}(inj{SortString{}, SortJSONKey{}}(\dv{SortString{}}("storage")), LblJSONObject{}(\right-assoc{}(LblJSONs{}(LblJSONEntry{}(inj{SortString{}, SortJSONKey{}}(\dv{SortString{}}("0x00")), inj{SortString{}, SortJSON{}}(\dv{SortString{}}("0x01"))), Lbl'Stop'List'LBraQuot'JSONs'QuotRBra'{}())))), Lbl'Stop'List'LBraQuot'JSONs'QuotRBra'{}())))), LblJSONEntry{}(inj{SortString{}, SortJSONKey{}}(\dv{SortString{}}("0x0f572e5295c57f15886f9b263e2f6d2d6c7b5ec6")), LblJSONObject{}(\right-assoc{}(LblJSONs{}(LblJSONEntry{}(inj{SortString{}, SortJSONKey{}}(\dv{SortString{}}("balance")), inj{SortString{}, SortJSON{}}(\dv{SortString{}}("0x0de0b6b3a7640017"))), LblJSONEntry{}(inj{SortString{}, SortJSONKey{}}(\dv{SortString{}}("code")), inj{SortString{}, SortJSON{}}(\dv{SortString{}}("0x7faabbffffffffffffffffffffffffffffffffffffffffffffffffffffffffccdd6000527fffffffffffffffffffffffffffffffffffffffffffffffffffffffffffffffff7fffffffffffffffffffffffffffffffffffffffffffffffffffffffffffffffff7fffffffffffffffffffffffffffffffffffffffffffffffffffffffffffffffff60206000a3"))), LblJSONEntry{}(inj{SortString{}, SortJSONKey{}}(\dv{SortString{}}("nonce")), inj{SortString{}, SortJSON{}}(\dv{SortString{}}("0x00"))), LblJSONEntry{}(inj{SortString{}, SortJSONKey{}}(\dv{SortString{}}("storage")), LblJSONObject{}(\right-assoc{}(LblJSONs{}(Lbl'Stop'List'LBraQuot'JSONs'QuotRBra'{}())))), Lbl'Stop'List'LBraQuot'JSONs'QuotRBra'{}())))), LblJSONEntry{}(inj{SortString{}, SortJSONKey{}}(\dv{SortString{}}("0x2adc25665018aa1fe0e6bc666dac8fc2697ff9ba")), LblJSONObject{}(\right-assoc{}(LblJSONs{}(LblJSONEntry{}(inj{SortString{}, SortJSONKey{}}(\dv{SortString{}}("balance")), inj{SortString{}, SortJSON{}}(\dv{SortString{}}("0x4563918244f4c18b"))), LblJSONEntry{}(inj{SortString{}, SortJSONKey{}}(\dv{SortString{}}("code")), inj{SortString{}, SortJSON{}}(\dv{SortString{}}(""))), LblJSONEntry{}(inj{SortString{}, SortJSONKey{}}(\dv{SortString{}}("nonce")), inj{SortString{}, SortJSON{}}(\dv{SortString{}}("0x00"))), LblJSONEntry{}(inj{SortString{}, SortJSONKey{}}(\dv{SortString{}}("storage")), LblJSONObject{}(\right-assoc{}(LblJSONs{}(Lbl'Stop'List'LBraQuot'JSONs'QuotRBra'{}())))), Lbl'Stop'List'LBraQuot'JSONs'QuotRBra'{}())))), LblJSONEntry{}(inj{SortString{}, SortJSONKey{}}(\dv{SortString{}}("0xa94f5374fce5edbc8e2a8697c15331677e6ebf0b")), LblJSONObject{}(\right-assoc{}(LblJSONs{}(LblJSONEntry{}(inj{SortString{}, SortJSONKey{}}(\dv{SortString{}}("balance")), inj{SortString{}, SortJSON{}}(\dv{SortString{}}("0x0de0b6b3a761b7d5"))), LblJSONEntry{}(inj{SortString{}, SortJSONKey{}}(\dv{SortString{}}("code")), inj{SortString{}, SortJSON{}}(\dv{SortString{}}(""))), LblJSONEntry{}(inj{SortString{}, SortJSONKey{}}(\dv{SortString{}}("nonce")), inj{SortString{}, SortJSON{}}(\dv{SortString{}}("0x01"))), LblJSONEntry{}(inj{SortString{}, SortJSONKey{}}(\dv{SortString{}}("storage")), LblJSONObject{}(\right-assoc{}(LblJSONs{}(Lbl'Stop'List'LBraQuot'JSONs'QuotRBra'{}())))), Lbl'Stop'List'LBraQuot'JSONs'QuotRBra'{}())))), Lbl'Stop'List'LBraQuot'JSONs'QuotRBra'{}())))), LblJSONEntry{}(inj{SortString{}, SortJSONKey{}}(\dv{SortString{}}("pre")), LblJSONObject{}(\right-assoc{}(LblJSONs{}(LblJSONEntry{}(inj{SortString{}, SortJSONKey{}}(\dv{SortString{}}("0x095e7baea6a6c7c4c2dfeb977efac326af552d87")), LblJSONObject{}(\right-assoc{}(LblJSONs{}(LblJSONEntry{}(inj{SortString{}, SortJSONKey{}}(\dv{SortString{}}("balance")), inj{SortString{}, SortJSON{}}(\dv{SortString{}}("0x0de0b6b3a7640000"))), LblJSONEntry{}(inj{SortString{}, SortJSONKey{}}(\dv{SortString{}}("code")), inj{SortString{}, SortJSON{}}(\dv{SortString{}}("0x60006000600060006017730f572e5295c57f15886f9b263e2f6d2d6c7b5ec66103e8f1600055"))), LblJSONEntry{}(inj{SortString{}, SortJSONKey{}}(\dv{SortString{}}("nonce")), inj{SortString{}, SortJSON{}}(\dv{SortString{}}("0x00"))), LblJSONEntry{}(inj{SortString{}, SortJSONKey{}}(\dv{SortString{}}("storage")), LblJSONObject{}(\right-assoc{}(LblJSONs{}(Lbl'Stop'List'LBraQuot'JSONs'QuotRBra'{}())))), Lbl'Stop'List'LBraQuot'JSONs'QuotRBra'{}())))), LblJSONEntry{}(inj{SortString{}, SortJSONKey{}}(\dv{SortString{}}("0x0f572e5295c57f15886f9b263e2f6d2d6c7b5ec6")), LblJSONObject{}(\right-assoc{}(LblJSONs{}(LblJSONEntry{}(inj{SortString{}, SortJSONKey{}}(\dv{SortString{}}("balance")), inj{SortString{}, SortJSON{}}(\dv{SortString{}}("0x0de0b6b3a7640000"))), LblJSONEntry{}(inj{SortString{}, SortJSONKey{}}(\dv{SortString{}}("code")), inj{SortString{}, SortJSON{}}(\dv{SortString{}}("0x7faabbffffffffffffffffffffffffffffffffffffffffffffffffffffffffccdd6000527fffffffffffffffffffffffffffffffffffffffffffffffffffffffffffffffff7fffffffffffffffffffffffffffffffffffffffffffffffffffffffffffffffff7fffffffffffffffffffffffffffffffffffffffffffffffffffffffffffffffff60206000a3"))), LblJSONEntry{}(inj{SortString{}, SortJSONKey{}}(\dv{SortString{}}("nonce")), inj{SortString{}, SortJSON{}}(\dv{SortString{}}("0x00"))), LblJSONEntry{}(inj{SortString{}, SortJSONKey{}}(\dv{SortString{}}("storage")), LblJSONObject{}(\right-assoc{}(LblJSONs{}(Lbl'Stop'List'LBraQuot'JSONs'QuotRBra'{}())))), Lbl'Stop'List'LBraQuot'JSONs'QuotRBra'{}())))), LblJSONEntry{}(inj{SortString{}, SortJSONKey{}}(\dv{SortString{}}("0xa94f5374fce5edbc8e2a8697c15331677e6ebf0b")), LblJSONObject{}(\right-assoc{}(LblJSONs{}(LblJSONEntry{}(inj{SortString{}, SortJSONKey{}}(\dv{SortString{}}("balance")), inj{SortString{}, SortJSON{}}(\dv{SortString{}}("0x0de0b6b3a7640000"))), LblJSONEntry{}(inj{SortString{}, SortJSONKey{}}(\dv{SortString{}}("code")), inj{SortString{}, SortJSON{}}(\dv{SortString{}}(""))), LblJSONEntry{}(inj{SortString{}, SortJSONKey{}}(\dv{SortString{}}("nonce")), inj{SortString{}, SortJSON{}}(\dv{SortString{}}("0x00"))), LblJSONEntry{}(inj{SortString{}, SortJSONKey{}}(\dv{SortString{}}("storage")), LblJSONObject{}(\right-assoc{}(LblJSONs{}(Lbl'Stop'List'LBraQuot'JSONs'QuotRBra'{}())))), Lbl'Stop'List'LBraQuot'JSONs'QuotRBra'{}())))), Lbl'Stop'List'LBraQuot'JSONs'QuotRBra'{}())))), Lbl'Stop'List'LBraQuot'JSONs'QuotRBra'{}())))), Lbl'Stop'List'LBraQuot'JSONs'QuotRBra'{}()))))), Lbl'UndsPipe'-'-GT-Unds'{}(inj{SortKConfigVar{}, SortKItem{}}(\dv{SortKConfigVar{}}("$SCHEDULE")), inj{SortSchedule{}, SortKItem{}}(LblCANCUN'Unds'EVM{}())), Lbl'UndsPipe'-'-GT-Unds'{}(inj{SortKConfigVar{}, SortKItem{}}(\dv{SortKConfigVar{}}("$MODE")), inj{SortMode{}, SortKItem{}}(LblNORMAL{}())), Lbl'UndsPipe'-'-GT-Unds'{}(inj{SortKConfigVar{}, SortKItem{}}(\dv{SortKConfigVar{}}("$CHAINID")), inj{SortInt{}, SortKItem{}}(\dv{SortInt{}}("1"))), Lbl'UndsPipe'-'-GT-Unds'{}(inj{SortKConfigVar{}, SortKItem{}}(\dv{SortKConfigVar{}}("$USEGAS")), inj{SortBool{}, SortKItem{}}(\dv{SortBool{}}("true"))))))
