{
    "ContractCreationSpam_d0g0v0_Byzantium" : {
        "_info" : {
            "comment" : "",
            "filledwith" : "testeth 1.6.0-alpha.0-11+commit.978e68d2",
            "lllcversion" : "Version: 0.5.0-develop.2018.11.9+commit.9709dfe0.Linux.g++",
            "source" : "src/BlockchainTestsFiller/GeneralStateTests/stAttackTest/ContractCreationSpam_d0g0v0Filler.json",
            "sourceHash" : "8e54d77b3795f787463c4360e0b7bf53424c2fec8560d61418c7cffd3e7eedf9"
        },
        "blocks" : [
            {
                "blockHeader" : {
                    "bloom" : "0x00000000000000000000000000000000000000000000000000000000000000000000000000000000000000000000000000000000000000000000000000000000000000000000000000000000000000000000000000000000000000000000000000000000000000000000000000000000000000000000000000000000000000000000000000000000000000000000000000000000000000000000000000000000000000000000000000000000000000000000000000000000000000000000000000000000000000000000000000000000000000000000000000000000000000000000000000000000000000000000000000000000000000000000000000000000",
                    "coinbase" : "0x2adc25665018aa1fe0e6bc666dac8fc2697ff9ba",
                    "difficulty" : "0x020000",
                    "extraData" : "",
                    "gasLimit" : "0x174876e800",
                    "gasUsed" : "0x0c3500",
                    "hash" : "0x395c1b94f8f4fe9f239719e27d11c86cec9b0c5ae063482fe187e7cdbc9ca9fa",
                    "mixHash" : "0x0000000000000000000000000000000000000000000000000000000000000000",
                    "nonce" : "0x0000000000000000",
                    "number" : "0x01",
                    "parentHash" : "0x24a30e4305ac41674b26493c800c05f507e98d3b8bceb0a314f9b9bc43622736",
                    "receiptTrie" : "0x1723da285b2c748c2ca379879c0cc2319ff26a9feb6d0779c6821ebe1a8122f6",
                    "stateRoot" : "0x0344321ea672cbc56b9b51fa730cb2e67fe4b5a7f8c4a14a291ce4d0292e2352",
                    "timestamp" : "0x03e8",
                    "transactionsTrie" : "0x202c09237fc2d6599e3cce6c9775000e3714d184832789143ef1ec871492f7fa",
                    "uncleHash" : "0x1dcc4de8dec75d7aab85b567b6ccd41ad312451b948a7413f0a142fd40d49347"
                },
                "rlp" : "0xf90262f901faa024a30e4305ac41674b26493c800c05f507e98d3b8bceb0a314f9b9bc43622736a01dcc4de8dec75d7aab85b567b6ccd41ad312451b948a7413f0a142fd40d49347942adc25665018aa1fe0e6bc666dac8fc2697ff9baa00344321ea672cbc56b9b51fa730cb2e67fe4b5a7f8c4a14a291ce4d0292e2352a0202c09237fc2d6599e3cce6c9775000e3714d184832789143ef1ec871492f7faa01723da285b2c748c2ca379879c0cc2319ff26a9feb6d0779c6821ebe1a8122f6b9010000000000000000000000000000000000000000000000000000000000000000000000000000000000000000000000000000000000000000000000000000000000000000000000000000000000000000000000000000000000000000000000000000000000000000000000000000000000000000000000000000000000000000000000000000000000000000000000000000000000000000000000000000000000000000000000000000000000000000000000000000000000000000000000000000000000000000000000000000000000000000000000000000000000000000000000000000000000000000000000000000000000000000000000000000000000830200000185174876e800830c35008203e880a00000000000000000000000000000000000000000000000000000000000000000880000000000000000f862f8608001830c3500946a0a0fc761c612c340a0e98d33b37a75e526847280801ba0aca0d145ae5d27ed427ff0e463b8a46181d4786c437d6efb9937a6990694af7aa00f9bd68ece8f38ef2836153cd0bb85ec92f8386177f6e68d5437ab7b7d0d6361c0",
                "transactions" : [
                    {
                        "data" : "0x",
                        "gasLimit" : "0x0c3500",
                        "gasPrice" : "0x01",
                        "nonce" : "0x00",
                        "r" : "0xaca0d145ae5d27ed427ff0e463b8a46181d4786c437d6efb9937a6990694af7a",
                        "s" : "0x0f9bd68ece8f38ef2836153cd0bb85ec92f8386177f6e68d5437ab7b7d0d6361",
                        "to" : "0x6a0a0fc761c612c340a0e98d33b37a75e5268472",
                        "v" : "0x1b",
                        "value" : "0x00"
                    }
                ],
                "uncleHeaders" : [
                ]
            }
        ],
        "genesisBlockHeader" : {
            "bloom" : "0x00000000000000000000000000000000000000000000000000000000000000000000000000000000000000000000000000000000000000000000000000000000000000000000000000000000000000000000000000000000000000000000000000000000000000000000000000000000000000000000000000000000000000000000000000000000000000000000000000000000000000000000000000000000000000000000000000000000000000000000000000000000000000000000000000000000000000000000000000000000000000000000000000000000000000000000000000000000000000000000000000000000000000000000000000000000",
            "coinbase" : "0x2adc25665018aa1fe0e6bc666dac8fc2697ff9ba",
            "difficulty" : "0x020000",
            "extraData" : "0x42",
            "gasLimit" : "0x174876e800",
            "gasUsed" : "0x00",
            "hash" : "0x24a30e4305ac41674b26493c800c05f507e98d3b8bceb0a314f9b9bc43622736",
            "mixHash" : "0x56e81f171bcc55a6ff8345e692c0f86e5b48e01b996cadc001622fb5e363b421",
            "nonce" : "0x0102030405060708",
            "number" : "0x00",
            "parentHash" : "0x0000000000000000000000000000000000000000000000000000000000000000",
            "receiptTrie" : "0x56e81f171bcc55a6ff8345e692c0f86e5b48e01b996cadc001622fb5e363b421",
            "stateRoot" : "0xd54ec35ca872c653659ad91eaa355665c286183b541a0519b3ab765a2d6733c3",
            "timestamp" : "0x03b6",
            "transactionsTrie" : "0x56e81f171bcc55a6ff8345e692c0f86e5b48e01b996cadc001622fb5e363b421",
            "uncleHash" : "0x1dcc4de8dec75d7aab85b567b6ccd41ad312451b948a7413f0a142fd40d49347"
        },
        "genesisRLP" : "0xf901fcf901f7a00000000000000000000000000000000000000000000000000000000000000000a01dcc4de8dec75d7aab85b567b6ccd41ad312451b948a7413f0a142fd40d49347942adc25665018aa1fe0e6bc666dac8fc2697ff9baa0d54ec35ca872c653659ad91eaa355665c286183b541a0519b3ab765a2d6733c3a056e81f171bcc55a6ff8345e692c0f86e5b48e01b996cadc001622fb5e363b421a056e81f171bcc55a6ff8345e692c0f86e5b48e01b996cadc001622fb5e363b421b9010000000000000000000000000000000000000000000000000000000000000000000000000000000000000000000000000000000000000000000000000000000000000000000000000000000000000000000000000000000000000000000000000000000000000000000000000000000000000000000000000000000000000000000000000000000000000000000000000000000000000000000000000000000000000000000000000000000000000000000000000000000000000000000000000000000000000000000000000000000000000000000000000000000000000000000000000000000000000000000000000000000000000000000000000000000000830200008085174876e800808203b642a056e81f171bcc55a6ff8345e692c0f86e5b48e01b996cadc001622fb5e363b421880102030405060708c0c0",
        "lastblockhash" : "0x395c1b94f8f4fe9f239719e27d11c86cec9b0c5ae063482fe187e7cdbc9ca9fa",
        "network" : "Byzantium",
        "postState" : {
            "0x2adc25665018aa1fe0e6bc666dac8fc2697ff9ba" : {
                "balance" : "0x29a2341af6383500",
                "code" : "",
                "nonce" : "0x00",
                "storage" : {
                }
            },
            "0x6a0a0fc761c612c340a0e98d33b37a75e5268472" : {
                "balance" : "0x0de0b6b3a7640000",
                "code" : "0x7f6004600c60003960046000f3600035ff00000000000000000000000000000000600052602060006000f0600054805b6001018060005260008060208180876006f1506001018060005260008060208180876006f1506001018060005260008060208180876006f1506001018060005260008060208180876006f1506001018060005260008060208180876006f1506001018060005260008060208180876006f1506001018060005260008060208180876006f1506001018060005260008060208180876006f1506001018060005260008060208180876006f1506001018060005260008060208180876006f1506001018060005260008060208180876006f1506001018060005260008060208180876006f1506001018060005260008060208180876006f1506001018060005260008060208180876006f1506001018060005260008060208180876006f1506001018060005260008060208180876006f1506001018060005260008060208180876006f1506001018060005260008060208180876006f1506001018060005260008060208180876006f1506001018060005260008060208180876006f1506001018060005260008060208180876006f1506001018060005260008060208180876006f1506001018060005260008060208180876006f1506001018060005260008060208180876006f1506001018060005260008060208180876006f1506001018060005260008060208180876006f1506001018060005260008060208180876006f1506001018060005260008060208180876006f1506001018060005260008060208180876006f1506001018060005260008060208180876006f1506001018060005260008060208180876006f1506001018060005260008060208180876006f1506001018060005260008060208180876006f1506001018060005260008060208180876006f1506001018060005260008060208180876006f1506001018060005260008060208180876006f1506001018060005260008060208180876006f1506001018060005260008060208180876006f1506001018060005260008060208180876006f1506001018060005260008060208180876006f1505a616000106200002f57600055",
                "nonce" : "0x00",
                "storage" : {
                }
            },
            "0xa94f5374fce5edbc8e2a8697c15331677e6ebf0b" : {
                "balance" : "0xe8d498db00",
                "code" : "",
                "nonce" : "0x01",
                "storage" : {
                }
            }
        },
        "pre" : {
            "0x6a0a0fc761c612c340a0e98d33b37a75e5268472" : {
                "balance" : "0x0de0b6b3a7640000",
                "code" : "0x7f6004600c60003960046000f3600035ff00000000000000000000000000000000600052602060006000f0600054805b6001018060005260008060208180876006f1506001018060005260008060208180876006f1506001018060005260008060208180876006f1506001018060005260008060208180876006f1506001018060005260008060208180876006f1506001018060005260008060208180876006f1506001018060005260008060208180876006f1506001018060005260008060208180876006f1506001018060005260008060208180876006f1506001018060005260008060208180876006f1506001018060005260008060208180876006f1506001018060005260008060208180876006f1506001018060005260008060208180876006f1506001018060005260008060208180876006f1506001018060005260008060208180876006f1506001018060005260008060208180876006f1506001018060005260008060208180876006f1506001018060005260008060208180876006f1506001018060005260008060208180876006f1506001018060005260008060208180876006f1506001018060005260008060208180876006f1506001018060005260008060208180876006f1506001018060005260008060208180876006f1506001018060005260008060208180876006f1506001018060005260008060208180876006f1506001018060005260008060208180876006f1506001018060005260008060208180876006f1506001018060005260008060208180876006f1506001018060005260008060208180876006f1506001018060005260008060208180876006f1506001018060005260008060208180876006f1506001018060005260008060208180876006f1506001018060005260008060208180876006f1506001018060005260008060208180876006f1506001018060005260008060208180876006f1506001018060005260008060208180876006f1506001018060005260008060208180876006f1506001018060005260008060208180876006f1506001018060005260008060208180876006f1506001018060005260008060208180876006f1505a616000106200002f57600055",
                "nonce" : "0x00",
                "storage" : {
                }
            },
            "0xa94f5374fce5edbc8e2a8697c15331677e6ebf0b" : {
                "balance" : "0xe8d4a51000",
                "code" : "",
                "nonce" : "0x00",
                "storage" : {
                }
            }
        },
        "sealEngine" : "NoProof"
    }
}
